{
  "contractName": "TriboBase",
  "abi": [
    {
      "constant": false,
      "inputs": [
        {
          "name": "_name",
          "type": "string"
        },
        {
          "name": "_description",
          "type": "string"
        }
      ],
      "name": "createTribe",
      "outputs": [
        {
          "name": "",
          "type": "uint256"
        }
      ],
      "payable": false,
      "stateMutability": "nonpayable",
      "type": "function"
    },
    {
      "constant": true,
      "inputs": [],
      "name": "owner",
      "outputs": [
        {
          "name": "",
          "type": "address"
        }
      ],
      "payable": false,
      "stateMutability": "view",
      "type": "function"
    },
    {
      "constant": true,
      "inputs": [],
      "name": "getNumberOfTribes",
      "outputs": [
        {
          "name": "",
          "type": "uint256"
        }
      ],
      "payable": false,
      "stateMutability": "view",
      "type": "function"
    },
    {
      "constant": true,
      "inputs": [
        {
          "name": "",
          "type": "uint256"
        }
      ],
      "name": "tribes",
      "outputs": [
        {
          "name": "founder",
          "type": "address"
        },
        {
          "name": "name",
          "type": "string"
        },
        {
          "name": "description",
          "type": "string"
        },
        {
          "name": "memberCount",
          "type": "uint256"
        },
        {
          "name": "profileImage",
          "type": "string"
        },
        {
          "name": "coverImage",
          "type": "string"
        }
      ],
      "payable": false,
      "stateMutability": "view",
      "type": "function"
    },
    {
      "constant": false,
      "inputs": [
        {
          "name": "newOwner",
          "type": "address"
        }
      ],
      "name": "transferOwnership",
      "outputs": [],
      "payable": false,
      "stateMutability": "nonpayable",
      "type": "function"
    },
    {
      "anonymous": false,
      "inputs": [
        {
          "indexed": true,
          "name": "owner",
          "type": "address"
        },
        {
          "indexed": true,
          "name": "_id",
          "type": "uint256"
        },
        {
          "indexed": false,
          "name": "name",
          "type": "string"
        },
        {
          "indexed": false,
          "name": "description",
          "type": "string"
        }
      ],
      "name": "NewTribe",
      "type": "event"
    }
  ],
  "bytecode": "0x6060604052336000806101000a81548173ffffffffffffffffffffffffffffffffffffffff021916908373ffffffffffffffffffffffffffffffffffffffff160217905550610ae8806100536000396000f30060606040526004361061006d576000357c0100000000000000000000000000000000000000000000000000000000900463ffffffff1680635db4d6c1146100725780638da5cb5b14610126578063984cbc791461017b578063a464c1e5146101a4578063f2fde38b14610432575b600080fd5b341561007d57600080fd5b610110600480803590602001908201803590602001908080601f0160208091040260200160405190810160405280939291908181526020018383808284378201915050505050509190803590602001908201803590602001908080601f0160208091040260200160405190810160405280939291908181526020018383808284378201915050505050509190505061046b565b6040518082815260200191505060405180910390f35b341561013157600080fd5b610139610728565b604051808273ffffffffffffffffffffffffffffffffffffffff1673ffffffffffffffffffffffffffffffffffffffff16815260200191505060405180910390f35b341561018657600080fd5b61018e61074d565b6040518082815260200191505060405180910390f35b34156101af57600080fd5b6101c5600480803590602001909190505061075a565b604051808773ffffffffffffffffffffffffffffffffffffffff1673ffffffffffffffffffffffffffffffffffffffff1681526020018060200180602001868152602001806020018060200185810385528a8181546001816001161561010002031660029004815260200191508054600181600116156101000203166002900480156102925780601f1061026757610100808354040283529160200191610292565b820191906000526020600020905b81548152906001019060200180831161027557829003601f168201915b50508581038452898181546001816001161561010002031660029004815260200191508054600181600116156101000203166002900480156103155780601f106102ea57610100808354040283529160200191610315565b820191906000526020600020905b8154815290600101906020018083116102f857829003601f168201915b50508581038352878181546001816001161561010002031660029004815260200191508054600181600116156101000203166002900480156103985780601f1061036d57610100808354040283529160200191610398565b820191906000526020600020905b81548152906001019060200180831161037b57829003601f168201915b505085810382528681815460018160011615610100020316600290048152602001915080546001816001161561010002031660029004801561041b5780601f106103f05761010080835404028352916020019161041b565b820191906000526020600020905b8154815290600101906020018083116103fe57829003601f168201915b50509a505050505050505050505060405180910390f35b341561043d57600080fd5b610469600480803573ffffffffffffffffffffffffffffffffffffffff169060200190919050506107c1565b005b6000610475610896565b6000601e855110151561048757600080fd5b6103e8845110151561049857600080fd5b60c0604051908101604052803373ffffffffffffffffffffffffffffffffffffffff168152602001868152602001858152602001600181526020016020604051908101604052806000815250815260200160206040519081016040528060008152508152509150600180805480600101828161051491906108fb565b9160005260206000209060060201600085909190915060008201518160000160006101000a81548173ffffffffffffffffffffffffffffffffffffffff021916908373ffffffffffffffffffffffffffffffffffffffff160217905550602082015181600101908051906020019061058d92919061092d565b5060408201518160020190805190602001906105aa92919061092d565b506060820151816003015560808201518160040190805190602001906105d192919061092d565b5060a08201518160050190805190602001906105ee92919061092d565b505050039050803373ffffffffffffffffffffffffffffffffffffffff167fe1409d99749a2b4c65333147d50671211d3242dd0b3f9f11b17989442900600384602001518560400151604051808060200180602001838103835285818151815260200191508051906020019080838360005b8381101561067b578082015181840152602081019050610660565b50505050905090810190601f1680156106a85780820380516001836020036101000a031916815260200191505b50838103825284818151815260200191508051906020019080838360005b838110156106e15780820151818401526020810190506106c6565b50505050905090810190601f16801561070e5780820380516001836020036101000a031916815260200191505b5094505050505060405180910390a3809250505092915050565b6000809054906101000a900473ffffffffffffffffffffffffffffffffffffffff1681565b6000600180549050905090565b60018181548110151561076957fe5b90600052602060002090600602016000915090508060000160009054906101000a900473ffffffffffffffffffffffffffffffffffffffff169080600101908060020190806003015490806004019080600501905086565b6000809054906101000a900473ffffffffffffffffffffffffffffffffffffffff1673ffffffffffffffffffffffffffffffffffffffff163373ffffffffffffffffffffffffffffffffffffffff1614151561081c57600080fd5b600073ffffffffffffffffffffffffffffffffffffffff168173ffffffffffffffffffffffffffffffffffffffff1614151561089357806000806101000a81548173ffffffffffffffffffffffffffffffffffffffff021916908373ffffffffffffffffffffffffffffffffffffffff1602179055505b50565b60c060405190810160405280600073ffffffffffffffffffffffffffffffffffffffff1681526020016108c76109ad565b81526020016108d46109ad565b8152602001600081526020016108e86109ad565b81526020016108f56109ad565b81525090565b8154818355818115116109285760060281600602836000526020600020918201910161092791906109c1565b5b505050565b828054600181600116156101000203166002900490600052602060002090601f016020900481019282601f1061096e57805160ff191683800117855561099c565b8280016001018555821561099c579182015b8281111561099b578251825591602001919060010190610980565b5b5090506109a99190610a4f565b5090565b602060405190810160405280600081525090565b610a4c91905b80821115610a4857600080820160006101000a81549073ffffffffffffffffffffffffffffffffffffffff0219169055600182016000610a079190610a74565b600282016000610a179190610a74565b6003820160009055600482016000610a2f9190610a74565b600582016000610a3f9190610a74565b506006016109c7565b5090565b90565b610a7191905b80821115610a6d576000816000905550600101610a55565b5090565b90565b50805460018160011615610100020316600290046000825580601f10610a9a5750610ab9565b601f016020900490600052602060002090810190610ab89190610a4f565b5b505600a165627a7a72305820f9fe46dea9220e5e7d73e3da53ddfc49bf0a51a9e01421312edb14720c6667f80029",
  "source": "pragma solidity ^0.4.11;\n\nimport \"./Ownable.sol\";\n\n/**\n * @title TriboBase\n * @dev This the final implementation of the tribo contract\n */\ncontract TriboBase is Ownable {\n\n  event NewTribe(\n    address indexed owner,\n    uint indexed _id,\n    string name,\n    string description\n  );\n\n  struct Tribe {\n    address founder;\n    string name;\n    string description;\n    uint memberCount;\n    string profileImage;\n    string coverImage;\n  }\n\n  Tribe[] public tribes;\n\n  function createTribe(string _name, string _description) public returns (uint) {\n    require(bytes(_name).length < 30);\n    require(bytes(_description).length < 1000);\n\n    Tribe memory _tribe = Tribe({\n      founder: msg.sender,\n      name: _name,\n      description: _description,\n      memberCount: 1,\n      profileImage: '',\n      coverImage: ''\n    });\n\n    uint newTribeId = tribes.push(_tribe) - 1;\n\n    NewTribe(\n      msg.sender,\n      newTribeId,\n      _tribe.name,\n      _tribe.description\n    );\n\n    return newTribeId;\n  }\n\n  function getNumberOfTribes() public constant returns (uint) {\n    return tribes.length;\n  }\n\n}\n",
  "sourcePath": "/Users/Bill/pixel/tribo-contracts/contracts/TriboBase.sol",
  "compiler": {
    "name": "solc",
    "version": "0.4.18+commit.9cf6e910.Emscripten.clang"
  },
  "schemaVersion": "1.0.1",
  "updatedAt": "2017-12-18T22:55:59.389Z"
}